:100000000C942A000C9434000C9434000C943400AA
:100010000C9434000C9434000C9434000C94340090
:100020000C9434000C9434000C9434000C94340080
:100030000C9434000C9434000C9434000C94340070
:100040000C9434000C9434000C9434000C94340060
:100050000C94340011241FBECFE5D4E0DEBFCDBF29
:100060000E9436000C9455000C9400008FE08ABB6F
:1000700041E024E234EF4BBBC9010197F1F78BB3A8
:10008000880F8BBBC9010197F1F78BB3880F8BBB2E
:10009000C9010197F1F78BB3880F8BBBC901019799
:0E00A000F1F78BB3880F8BBBE6CFF894FFCF40
:00000001FF
